{
  "contractName": "Ecosystem",
  "abi": [
    {
      "inputs": [
        {
          "internalType": "uint256",
          "name": "initialSupply",
          "type": "uint256"
        }
      ],
      "stateMutability": "nonpayable",
      "type": "constructor"
    },
    {
      "inputs": [
        {
          "internalType": "address",
          "name": "owner",
          "type": "address"
        }
      ],
      "name": "OwnableInvalidOwner",
      "type": "error"
    },
    {
      "inputs": [
        {
          "internalType": "address",
          "name": "account",
          "type": "address"
        }
      ],
      "name": "OwnableUnauthorizedAccount",
      "type": "error"
    },
    {
      "anonymous": false,
      "inputs": [
        {
          "indexed": true,
          "internalType": "address",
          "name": "from",
          "type": "address"
        },
        {
          "indexed": true,
          "internalType": "address",
          "name": "to",
          "type": "address"
        },
        {
          "indexed": false,
          "internalType": "uint256",
          "name": "amount",
          "type": "uint256"
        }
      ],
      "name": "EPTransferred",
      "type": "event"
    },
    {
      "anonymous": false,
      "inputs": [
        {
          "indexed": true,
          "internalType": "address",
          "name": "previousOwner",
          "type": "address"
        },
        {
          "indexed": true,
          "internalType": "address",
          "name": "newOwner",
          "type": "address"
        }
      ],
      "name": "OwnershipTransferred",
      "type": "event"
    },
    {
      "anonymous": false,
      "inputs": [
        {
          "indexed": true,
          "internalType": "address",
          "name": "walletId",
          "type": "address"
        },
        {
          "indexed": false,
          "internalType": "string",
          "name": "username",
          "type": "string"
        }
      ],
      "name": "UserRegistered",
      "type": "event"
    },
    {
      "inputs": [],
      "name": "epToken",
      "outputs": [
        {
          "internalType": "contract EduPoints",
          "name": "",
          "type": "address"
        }
      ],
      "stateMutability": "view",
      "type": "function",
      "constant": true
    },
    {
      "inputs": [],
      "name": "owner",
      "outputs": [
        {
          "internalType": "address",
          "name": "",
          "type": "address"
        }
      ],
      "stateMutability": "view",
      "type": "function",
      "constant": true
    },
    {
      "inputs": [],
      "name": "renounceOwnership",
      "outputs": [],
      "stateMutability": "nonpayable",
      "type": "function"
    },
    {
      "inputs": [],
      "name": "transactionCounter",
      "outputs": [
        {
          "internalType": "uint256",
          "name": "",
          "type": "uint256"
        }
      ],
      "stateMutability": "view",
      "type": "function",
      "constant": true
    },
    {
      "inputs": [
        {
          "internalType": "uint256",
          "name": "",
          "type": "uint256"
        }
      ],
      "name": "transactions",
      "outputs": [
        {
          "internalType": "address",
          "name": "_to",
          "type": "address"
        },
        {
          "internalType": "address",
          "name": "_from",
          "type": "address"
        },
        {
          "internalType": "uint256",
          "name": "_cost",
          "type": "uint256"
        }
      ],
      "stateMutability": "view",
      "type": "function",
      "constant": true
    },
    {
      "inputs": [
        {
          "internalType": "address",
          "name": "newOwner",
          "type": "address"
        }
      ],
      "name": "transferOwnership",
      "outputs": [],
      "stateMutability": "nonpayable",
      "type": "function"
    },
    {
      "inputs": [
        {
          "internalType": "address",
          "name": "",
          "type": "address"
        }
      ],
      "name": "users",
      "outputs": [
        {
          "internalType": "string",
          "name": "username",
          "type": "string"
        },
        {
          "internalType": "bool",
          "name": "isRegistered",
          "type": "bool"
        },
        {
          "internalType": "address",
          "name": "walletId",
          "type": "address"
        },
        {
          "internalType": "uint256",
          "name": "epBalance",
          "type": "uint256"
        }
      ],
      "stateMutability": "view",
      "type": "function",
      "constant": true
    },
    {
      "inputs": [
        {
          "internalType": "string",
          "name": "_username",
          "type": "string"
        },
        {
          "internalType": "address",
          "name": "_walletId",
          "type": "address"
        }
      ],
      "name": "registerUser",
      "outputs": [],
      "stateMutability": "nonpayable",
      "type": "function"
    },
    {
      "inputs": [
        {
          "internalType": "address",
          "name": "_from",
          "type": "address"
        },
        {
          "internalType": "address",
          "name": "_to",
          "type": "address"
        },
        {
          "internalType": "uint256",
          "name": "_cost",
          "type": "uint256"
        }
      ],
      "name": "transferEP",
      "outputs": [],
      "stateMutability": "nonpayable",
      "type": "function"
    }
  ],
  "bytecode": "0x608060405234801562000010575f80fd5b50604051620037ec380380620037ec83398181016040528101906200003691906200024a565b335f73ffffffffffffffffffffffffffffffffffffffff168173ffffffffffffffffffffffffffffffffffffffff1603620000aa575f6040517f1e4fbdf7000000000000000000000000000000000000000000000000000000008152600401620000a19190620002bd565b60405180910390fd5b620000bb816200013f60201b60201c565b5080604051620000cb9062000200565b620000d79190620002e9565b604051809103905ff080158015620000f1573d5f803e3d5ffd5b5060015f6101000a81548173ffffffffffffffffffffffffffffffffffffffff021916908373ffffffffffffffffffffffffffffffffffffffff1602179055505f6004819055505062000304565b5f805f9054906101000a900473ffffffffffffffffffffffffffffffffffffffff169050815f806101000a81548173ffffffffffffffffffffffffffffffffffffffff021916908373ffffffffffffffffffffffffffffffffffffffff1602179055508173ffffffffffffffffffffffffffffffffffffffff168173ffffffffffffffffffffffffffffffffffffffff167f8be0079c531659141344cd1fd0a4f28419497f9722a3daafe3b4186f6b6457e060405160405180910390a35050565b611be08062001c0c83390190565b5f80fd5b5f819050919050565b620002268162000212565b811462000231575f80fd5b50565b5f8151905062000244816200021b565b92915050565b5f602082840312156200026257620002616200020e565b5b5f620002718482850162000234565b91505092915050565b5f73ffffffffffffffffffffffffffffffffffffffff82169050919050565b5f620002a5826200027a565b9050919050565b620002b78162000299565b82525050565b5f602082019050620002d25f830184620002ac565b92915050565b620002e38162000212565b82525050565b5f602082019050620002fe5f830184620002d8565b92915050565b6118fa80620003125f395ff3fe608060405234801561000f575f80fd5b5060043610610091575f3560e01c8063715018a611610064578063715018a6146101095780638da5cb5b146101135780639ace38c214610131578063a87430ba14610163578063f2fde38b1461019657610091565b80630e54b8721461009557806314e887e8146100b157806331430f8e146100cf5780635af7ca9a146100ed575b5f80fd5b6100af60048036038101906100aa9190610e6b565b6101b2565b005b6100b9610440565b6040516100c69190610edd565b60405180910390f35b6100d7610446565b6040516100e49190610f51565b60405180910390f35b61010760048036038101906101029190610f94565b61046b565b005b610111610975565b005b61011b610988565b6040516101289190610ff3565b60405180910390f35b61014b6004803603810190610146919061100c565b6109af565b60405161015a93929190611037565b60405180910390f35b61017d6004803603810190610178919061106c565b610a13565b60405161018d949392919061112b565b60405180910390f35b6101b060048036038101906101ab919061106c565b610af1565b005b60025f8273ffffffffffffffffffffffffffffffffffffffff1673ffffffffffffffffffffffffffffffffffffffff1681526020019081526020015f206001015f9054906101000a900460ff161561023f576040517f08c379a0000000000000000000000000000000000000000000000000000000008152600401610236906111bf565b60405180910390fd5b5f825111610282576040517f08c379a000000000000000000000000000000000000000000000000000000000815260040161027990611227565b60405180910390fd5b5f73ffffffffffffffffffffffffffffffffffffffff168173ffffffffffffffffffffffffffffffffffffffff16036102f0576040517f08c379a00000000000000000000000000000000000000000000000000000000081526004016102e79061128f565b60405180910390fd5b60405180608001604052808381526020016001151581526020013373ffffffffffffffffffffffffffffffffffffffff1681526020015f81525060025f8373ffffffffffffffffffffffffffffffffffffffff1673ffffffffffffffffffffffffffffffffffffffff1681526020019081526020015f205f820151815f01908161037a919061149e565b506020820151816001015f6101000a81548160ff02191690831515021790555060408201518160010160016101000a81548173ffffffffffffffffffffffffffffffffffffffff021916908373ffffffffffffffffffffffffffffffffffffffff160217905550606082015181600201559050503373ffffffffffffffffffffffffffffffffffffffff167f48cac28ad4dc618e15f4c2dd5e97751182f166de97b25618318b2112aa951a2f83604051610434919061156d565b60405180910390a25050565b60045481565b60015f9054906101000a900473ffffffffffffffffffffffffffffffffffffffff1681565b60025f8473ffffffffffffffffffffffffffffffffffffffff1673ffffffffffffffffffffffffffffffffffffffff1681526020019081526020015f206001015f9054906101000a900460ff166104f7576040517f08c379a00000000000000000000000000000000000000000000000000000000081526004016104ee906115d7565b60405180910390fd5b60025f8373ffffffffffffffffffffffffffffffffffffffff1673ffffffffffffffffffffffffffffffffffffffff1681526020019081526020015f206001015f9054906101000a900460ff16610583576040517f08c379a000000000000000000000000000000000000000000000000000000000815260040161057a9061163f565b60405180910390fd5b8060025f8573ffffffffffffffffffffffffffffffffffffffff1673ffffffffffffffffffffffffffffffffffffffff1681526020019081526020015f20600201541015610606576040517f08c379a00000000000000000000000000000000000000000000000000000000081526004016105fd906116a7565b60405180910390fd5b8173ffffffffffffffffffffffffffffffffffffffff168373ffffffffffffffffffffffffffffffffffffffff1603610674576040517f08c379a000000000000000000000000000000000000000000000000000000000815260040161066b9061170f565b60405180910390fd5b5f60015f9054906101000a900473ffffffffffffffffffffffffffffffffffffffff1673ffffffffffffffffffffffffffffffffffffffff166323b872dd8585856040518463ffffffff1660e01b81526004016106d393929190611037565b6020604051808303815f875af11580156106ef573d5f803e3d5ffd5b505050506040513d601f19601f820116820180604052508101906107139190611757565b905080610755576040517f08c379a000000000000000000000000000000000000000000000000000000000815260040161074c906117cc565b60405180910390fd5b8160025f8673ffffffffffffffffffffffffffffffffffffffff1673ffffffffffffffffffffffffffffffffffffffff1681526020019081526020015f206002015f8282546107a49190611817565b925050819055508160025f8573ffffffffffffffffffffffffffffffffffffffff1673ffffffffffffffffffffffffffffffffffffffff1681526020019081526020015f206002015f8282546107fa919061184a565b925050819055505f60405180606001604052808573ffffffffffffffffffffffffffffffffffffffff1681526020018673ffffffffffffffffffffffffffffffffffffffff1681526020018481525090508060035f60045f8154809291906108619061187d565b9190505581526020019081526020015f205f820151815f015f6101000a81548173ffffffffffffffffffffffffffffffffffffffff021916908373ffffffffffffffffffffffffffffffffffffffff1602179055506020820151816001015f6101000a81548173ffffffffffffffffffffffffffffffffffffffff021916908373ffffffffffffffffffffffffffffffffffffffff160217905550604082015181600201559050508373ffffffffffffffffffffffffffffffffffffffff168573ffffffffffffffffffffffffffffffffffffffff167fb5f704fe4c0cc2355f9d1b5d3b702e30463f6e97ba7b3f331d116140a840e815856040516109669190610edd565b60405180910390a35050505050565b61097d610b75565b6109865f610bfc565b565b5f805f9054906101000a900473ffffffffffffffffffffffffffffffffffffffff16905090565b6003602052805f5260405f205f91509050805f015f9054906101000a900473ffffffffffffffffffffffffffffffffffffffff1690806001015f9054906101000a900473ffffffffffffffffffffffffffffffffffffffff16908060020154905083565b6002602052805f5260405f205f91509050805f018054610a32906112da565b80601f0160208091040260200160405190810160405280929190818152602001828054610a5e906112da565b8015610aa95780601f10610a8057610100808354040283529160200191610aa9565b820191905f5260205f20905b815481529060010190602001808311610a8c57829003601f168201915b505050505090806001015f9054906101000a900460ff16908060010160019054906101000a900473ffffffffffffffffffffffffffffffffffffffff16908060020154905084565b610af9610b75565b5f73ffffffffffffffffffffffffffffffffffffffff168173ffffffffffffffffffffffffffffffffffffffff1603610b69575f6040517f1e4fbdf7000000000000000000000000000000000000000000000000000000008152600401610b609190610ff3565b60405180910390fd5b610b7281610bfc565b50565b610b7d610cbd565b73ffffffffffffffffffffffffffffffffffffffff16610b9b610988565b73ffffffffffffffffffffffffffffffffffffffff1614610bfa57610bbe610cbd565b6040517f118cdaa7000000000000000000000000000000000000000000000000000000008152600401610bf19190610ff3565b60405180910390fd5b565b5f805f9054906101000a900473ffffffffffffffffffffffffffffffffffffffff169050815f806101000a81548173ffffffffffffffffffffffffffffffffffffffff021916908373ffffffffffffffffffffffffffffffffffffffff1602179055508173ffffffffffffffffffffffffffffffffffffffff168173ffffffffffffffffffffffffffffffffffffffff167f8be0079c531659141344cd1fd0a4f28419497f9722a3daafe3b4186f6b6457e060405160405180910390a35050565b5f33905090565b5f604051905090565b5f80fd5b5f80fd5b5f80fd5b5f80fd5b5f601f19601f8301169050919050565b7f4e487b71000000000000000000000000000000000000000000000000000000005f52604160045260245ffd5b610d2382610cdd565b810181811067ffffffffffffffff82111715610d4257610d41610ced565b5b80604052505050565b5f610d54610cc4565b9050610d608282610d1a565b919050565b5f67ffffffffffffffff821115610d7f57610d7e610ced565b5b610d8882610cdd565b9050602081019050919050565b828183375f83830152505050565b5f610db5610db084610d65565b610d4b565b905082815260208101848484011115610dd157610dd0610cd9565b5b610ddc848285610d95565b509392505050565b5f82601f830112610df857610df7610cd5565b5b8135610e08848260208601610da3565b91505092915050565b5f73ffffffffffffffffffffffffffffffffffffffff82169050919050565b5f610e3a82610e11565b9050919050565b610e4a81610e30565b8114610e54575f80fd5b50565b5f81359050610e6581610e41565b92915050565b5f8060408385031215610e8157610e80610ccd565b5b5f83013567ffffffffffffffff811115610e9e57610e9d610cd1565b5b610eaa85828601610de4565b9250506020610ebb85828601610e57565b9150509250929050565b5f819050919050565b610ed781610ec5565b82525050565b5f602082019050610ef05f830184610ece565b92915050565b5f819050919050565b5f610f19610f14610f0f84610e11565b610ef6565b610e11565b9050919050565b5f610f2a82610eff565b9050919050565b5f610f3b82610f20565b9050919050565b610f4b81610f31565b82525050565b5f602082019050610f645f830184610f42565b92915050565b610f7381610ec5565b8114610f7d575f80fd5b50565b5f81359050610f8e81610f6a565b92915050565b5f805f60608486031215610fab57610faa610ccd565b5b5f610fb886828701610e57565b9350506020610fc986828701610e57565b9250506040610fda86828701610f80565b9150509250925092565b610fed81610e30565b82525050565b5f6020820190506110065f830184610fe4565b92915050565b5f6020828403121561102157611020610ccd565b5b5f61102e84828501610f80565b91505092915050565b5f60608201905061104a5f830186610fe4565b6110576020830185610fe4565b6110646040830184610ece565b949350505050565b5f6020828403121561108157611080610ccd565b5b5f61108e84828501610e57565b91505092915050565b5f81519050919050565b5f82825260208201905092915050565b5f5b838110156110ce5780820151818401526020810190506110b3565b5f8484015250505050565b5f6110e382611097565b6110ed81856110a1565b93506110fd8185602086016110b1565b61110681610cdd565b840191505092915050565b5f8115159050919050565b61112581611111565b82525050565b5f6080820190508181035f83015261114381876110d9565b9050611152602083018661111c565b61115f6040830185610fe4565b61116c6060830184610ece565b95945050505050565b7f5573657220697320616c726561647920726567697374657265640000000000005f82015250565b5f6111a9601a836110a1565b91506111b482611175565b602082019050919050565b5f6020820190508181035f8301526111d68161119d565b9050919050565b7f557365726e616d652063616e6e6f7420626520656d70747900000000000000005f82015250565b5f6112116018836110a1565b915061121c826111dd565b602082019050919050565b5f6020820190508181035f83015261123e81611205565b9050919050565b7f496e76616c69642077616c6c65742061646472657373000000000000000000005f82015250565b5f6112796016836110a1565b915061128482611245565b602082019050919050565b5f6020820190508181035f8301526112a68161126d565b9050919050565b7f4e487b71000000000000000000000000000000000000000000000000000000005f52602260045260245ffd5b5f60028204905060018216806112f157607f821691505b602082108103611304576113036112ad565b5b50919050565b5f819050815f5260205f209050919050565b5f6020601f8301049050919050565b5f82821b905092915050565b5f600883026113667fffffffffffffffffffffffffffffffffffffffffffffffffffffffffffffffff8261132b565b611370868361132b565b95508019841693508086168417925050509392505050565b5f6113a261139d61139884610ec5565b610ef6565b610ec5565b9050919050565b5f819050919050565b6113bb83611388565b6113cf6113c7826113a9565b848454611337565b825550505050565b5f90565b6113e36113d7565b6113ee8184846113b2565b505050565b5b81811015611411576114065f826113db565b6001810190506113f4565b5050565b601f821115611456576114278161130a565b6114308461131c565b8101602085101561143f578190505b61145361144b8561131c565b8301826113f3565b50505b505050565b5f82821c905092915050565b5f6114765f198460080261145b565b1980831691505092915050565b5f61148e8383611467565b9150826002028217905092915050565b6114a782611097565b67ffffffffffffffff8111156114c0576114bf610ced565b5b6114ca82546112da565b6114d5828285611415565b5f60209050601f831160018114611506575f84156114f4578287015190505b6114fe8582611483565b865550611565565b601f1984166115148661130a565b5f5b8281101561153b57848901518255600182019150602085019450602081019050611516565b868310156115585784890151611554601f891682611467565b8355505b6001600288020188555050505b505050505050565b5f6020820190508181035f83015261158581846110d9565b905092915050565b7f53656e646572206973206e6f74207265676973746572656400000000000000005f82015250565b5f6115c16018836110a1565b91506115cc8261158d565b602082019050919050565b5f6020820190508181035f8301526115ee816115b5565b9050919050565b7f5265636569766572206973206e6f7420726567697374657265640000000000005f82015250565b5f611629601a836110a1565b9150611634826115f5565b602082019050919050565b5f6020820190508181035f8301526116568161161d565b9050919050565b7f496e73756666696369656e742045502062616c616e63650000000000000000005f82015250565b5f6116916017836110a1565b915061169c8261165d565b602082019050919050565b5f6020820190508181035f8301526116be81611685565b9050919050565b7f43616e6e6f74207472616e7366657220746f2073656c660000000000000000005f82015250565b5f6116f96017836110a1565b9150611704826116c5565b602082019050919050565b5f6020820190508181035f830152611726816116ed565b9050919050565b61173681611111565b8114611740575f80fd5b50565b5f815190506117518161172d565b92915050565b5f6020828403121561176c5761176b610ccd565b5b5f61177984828501611743565b91505092915050565b7f5472616e73666572206661696c656400000000000000000000000000000000005f82015250565b5f6117b6600f836110a1565b91506117c182611782565b602082019050919050565b5f6020820190508181035f8301526117e3816117aa565b9050919050565b7f4e487b71000000000000000000000000000000000000000000000000000000005f52601160045260245ffd5b5f61182182610ec5565b915061182c83610ec5565b9250828203905081811115611844576118436117ea565b5b92915050565b5f61185482610ec5565b915061185f83610ec5565b9250828201905080821115611877576118766117ea565b5b92915050565b5f61188782610ec5565b91507fffffffffffffffffffffffffffffffffffffffffffffffffffffffffffffffff82036118b9576118b86117ea565b5b60018201905091905056fea2646970667358221220e89e64e415c20a6b8b26f9e71419c1cdf05ce8b02fc004105d5fd3e33ab2e08164736f6c63430008150033608060405234801562000010575f80fd5b5060405162001be038038062001be0833981810160405281019062000036919062000514565b336040518060400160405280600e81526020017f456475636174696f6e506f696e740000000000000000000000000000000000008152506040518060400160405280600281526020017f45500000000000000000000000000000000000000000000000000000000000008152508160039081620000b491906200079f565b508060049081620000c691906200079f565b5050505f73ffffffffffffffffffffffffffffffffffffffff168173ffffffffffffffffffffffffffffffffffffffff16036200013c575f6040517f1e4fbdf7000000000000000000000000000000000000000000000000000000008152600401620001339190620008c6565b60405180910390fd5b6200014d816200016760201b60201c565b506200016033826200022a60201b60201c565b50620009af565b5f60055f9054906101000a900473ffffffffffffffffffffffffffffffffffffffff1690508160055f6101000a81548173ffffffffffffffffffffffffffffffffffffffff021916908373ffffffffffffffffffffffffffffffffffffffff1602179055508173ffffffffffffffffffffffffffffffffffffffff168173ffffffffffffffffffffffffffffffffffffffff167f8be0079c531659141344cd1fd0a4f28419497f9722a3daafe3b4186f6b6457e060405160405180910390a35050565b5f73ffffffffffffffffffffffffffffffffffffffff168273ffffffffffffffffffffffffffffffffffffffff16036200029d575f6040517fec442f05000000000000000000000000000000000000000000000000000000008152600401620002949190620008c6565b60405180910390fd5b620002b05f8383620002b460201b60201c565b5050565b5f73ffffffffffffffffffffffffffffffffffffffff168373ffffffffffffffffffffffffffffffffffffffff160362000308578060025f828254620002fb91906200090e565b92505081905550620003d9565b5f805f8573ffffffffffffffffffffffffffffffffffffffff1673ffffffffffffffffffffffffffffffffffffffff1681526020019081526020015f205490508181101562000394578381836040517fe450d38c0000000000000000000000000000000000000000000000000000000081526004016200038b9392919062000959565b60405180910390fd5b8181035f808673ffffffffffffffffffffffffffffffffffffffff1673ffffffffffffffffffffffffffffffffffffffff1681526020019081526020015f2081905550505b5f73ffffffffffffffffffffffffffffffffffffffff168273ffffffffffffffffffffffffffffffffffffffff160362000422578060025f82825403925050819055506200046c565b805f808473ffffffffffffffffffffffffffffffffffffffff1673ffffffffffffffffffffffffffffffffffffffff1681526020019081526020015f205f82825401925050819055505b8173ffffffffffffffffffffffffffffffffffffffff168373ffffffffffffffffffffffffffffffffffffffff167fddf252ad1be2c89b69c2b068fc378daa952ba7f163c4a11628f55a4df523b3ef83604051620004cb919062000994565b60405180910390a3505050565b5f80fd5b5f819050919050565b620004f081620004dc565b8114620004fb575f80fd5b50565b5f815190506200050e81620004e5565b92915050565b5f602082840312156200052c576200052b620004d8565b5b5f6200053b84828501620004fe565b91505092915050565b5f81519050919050565b7f4e487b71000000000000000000000000000000000000000000000000000000005f52604160045260245ffd5b7f4e487b71000000000000000000000000000000000000000000000000000000005f52602260045260245ffd5b5f6002820490506001821680620005c057607f821691505b602082108103620005d657620005d56200057b565b5b50919050565b5f819050815f5260205f209050919050565b5f6020601f8301049050919050565b5f82821b905092915050565b5f600883026200063a7fffffffffffffffffffffffffffffffffffffffffffffffffffffffffffffffff82620005fd565b620006468683620005fd565b95508019841693508086168417925050509392505050565b5f819050919050565b5f62000687620006816200067b84620004dc565b6200065e565b620004dc565b9050919050565b5f819050919050565b620006a28362000667565b620006ba620006b1826200068e565b84845462000609565b825550505050565b5f90565b620006d0620006c2565b620006dd81848462000697565b505050565b5b818110156200070457620006f85f82620006c6565b600181019050620006e3565b5050565b601f82111562000753576200071d81620005dc565b6200072884620005ee565b8101602085101562000738578190505b620007506200074785620005ee565b830182620006e2565b50505b505050565b5f82821c905092915050565b5f620007755f198460080262000758565b1980831691505092915050565b5f6200078f838362000764565b9150826002028217905092915050565b620007aa8262000544565b67ffffffffffffffff811115620007c657620007c56200054e565b5b620007d28254620005a8565b620007df82828562000708565b5f60209050601f83116001811462000815575f841562000800578287015190505b6200080c858262000782565b8655506200087b565b601f1984166200082586620005dc565b5f5b828110156200084e5784890151825560018201915060208501945060208101905062000827565b868310156200086e57848901516200086a601f89168262000764565b8355505b6001600288020188555050505b505050505050565b5f73ffffffffffffffffffffffffffffffffffffffff82169050919050565b5f620008ae8262000883565b9050919050565b620008c081620008a2565b82525050565b5f602082019050620008db5f830184620008b5565b92915050565b7f4e487b71000000000000000000000000000000000000000000000000000000005f52601160045260245ffd5b5f6200091a82620004dc565b91506200092783620004dc565b9250828201905080821115620009425762000941620008e1565b5b92915050565b6200095381620004dc565b82525050565b5f6060820190506200096e5f830186620008b5565b6200097d602083018562000948565b6200098c604083018462000948565b949350505050565b5f602082019050620009a95f83018462000948565b92915050565b61122380620009bd5f395ff3fe608060405234801561000f575f80fd5b50600436106100e8575f3560e01c806370a082311161008a57806395d89b411161006457806395d89b4114610236578063a9059cbb14610254578063dd62ed3e14610284578063f2fde38b146102b4576100e8565b806370a08231146101de578063715018a61461020e5780638da5cb5b14610218576100e8565b806323b872dd116100c657806323b872dd14610158578063313ce5671461018857806340c10f19146101a657806342966c68146101c2576100e8565b806306fdde03146100ec578063095ea7b31461010a57806318160ddd1461013a575b5f80fd5b6100f46102d0565b6040516101019190610e71565b60405180910390f35b610124600480360381019061011f9190610f22565b610360565b6040516101319190610f7a565b60405180910390f35b610142610382565b60405161014f9190610fa2565b60405180910390f35b610172600480360381019061016d9190610fbb565b61038b565b60405161017f9190610f7a565b60405180910390f35b6101906103b9565b60405161019d9190611026565b60405180910390f35b6101c060048036038101906101bb9190610f22565b6103c1565b005b6101dc60048036038101906101d7919061103f565b6103d7565b005b6101f860048036038101906101f3919061106a565b6103e4565b6040516102059190610fa2565b60405180910390f35b610216610429565b005b61022061043c565b60405161022d91906110a4565b60405180910390f35b61023e610464565b60405161024b9190610e71565b60405180910390f35b61026e60048036038101906102699190610f22565b6104f4565b60405161027b9190610f7a565b60405180910390f35b61029e600480360381019061029991906110bd565b610516565b6040516102ab9190610fa2565b60405180910390f35b6102ce60048036038101906102c9919061106a565b610598565b005b6060600380546102df90611128565b80601f016020809104026020016040519081016040528092919081815260200182805461030b90611128565b80156103565780601f1061032d57610100808354040283529160200191610356565b820191905f5260205f20905b81548152906001019060200180831161033957829003601f168201915b5050505050905090565b5f8061036a61061c565b9050610377818585610623565b600191505092915050565b5f600254905090565b5f8061039561061c565b90506103a2858285610635565b6103ad8585856106c7565b60019150509392505050565b5f6012905090565b6103c96107b7565b6103d3828261083e565b5050565b6103e133826108bd565b50565b5f805f8373ffffffffffffffffffffffffffffffffffffffff1673ffffffffffffffffffffffffffffffffffffffff1681526020019081526020015f20549050919050565b6104316107b7565b61043a5f61093c565b565b5f60055f9054906101000a900473ffffffffffffffffffffffffffffffffffffffff16905090565b60606004805461047390611128565b80601f016020809104026020016040519081016040528092919081815260200182805461049f90611128565b80156104ea5780601f106104c1576101008083540402835291602001916104ea565b820191905f5260205f20905b8154815290600101906020018083116104cd57829003601f168201915b5050505050905090565b5f806104fe61061c565b905061050b8185856106c7565b600191505092915050565b5f60015f8473ffffffffffffffffffffffffffffffffffffffff1673ffffffffffffffffffffffffffffffffffffffff1681526020019081526020015f205f8373ffffffffffffffffffffffffffffffffffffffff1673ffffffffffffffffffffffffffffffffffffffff1681526020019081526020015f2054905092915050565b6105a06107b7565b5f73ffffffffffffffffffffffffffffffffffffffff168173ffffffffffffffffffffffffffffffffffffffff1603610610575f6040517f1e4fbdf700000000000000000000000000000000000000000000000000000000815260040161060791906110a4565b60405180910390fd5b6106198161093c565b50565b5f33905090565b61063083838360016109ff565b505050565b5f6106408484610516565b90507fffffffffffffffffffffffffffffffffffffffffffffffffffffffffffffffff81146106c157818110156106b2578281836040517ffb8f41b20000000000000000000000000000000000000000000000000000000081526004016106a993929190611158565b60405180910390fd5b6106c084848484035f6109ff565b5b50505050565b5f73ffffffffffffffffffffffffffffffffffffffff168373ffffffffffffffffffffffffffffffffffffffff1603610737575f6040517f96c6fd1e00000000000000000000000000000000000000000000000000000000815260040161072e91906110a4565b60405180910390fd5b5f73ffffffffffffffffffffffffffffffffffffffff168273ffffffffffffffffffffffffffffffffffffffff16036107a7575f6040517fec442f0500000000000000000000000000000000000000000000000000000000815260040161079e91906110a4565b60405180910390fd5b6107b2838383610bce565b505050565b6107bf61061c565b73ffffffffffffffffffffffffffffffffffffffff166107dd61043c565b73ffffffffffffffffffffffffffffffffffffffff161461083c5761080061061c565b6040517f118cdaa700000000000000000000000000000000000000000000000000000000815260040161083391906110a4565b60405180910390fd5b565b5f73ffffffffffffffffffffffffffffffffffffffff168273ffffffffffffffffffffffffffffffffffffffff16036108ae575f6040517fec442f050000000000000000000000000000000000000000000000000000000081526004016108a591906110a4565b60405180910390fd5b6108b95f8383610bce565b5050565b5f73ffffffffffffffffffffffffffffffffffffffff168273ffffffffffffffffffffffffffffffffffffffff160361092d575f6040517f96c6fd1e00000000000000000000000000000000000000000000000000000000815260040161092491906110a4565b60405180910390fd5b610938825f83610bce565b5050565b5f60055f9054906101000a900473ffffffffffffffffffffffffffffffffffffffff1690508160055f6101000a81548173ffffffffffffffffffffffffffffffffffffffff021916908373ffffffffffffffffffffffffffffffffffffffff1602179055508173ffffffffffffffffffffffffffffffffffffffff168173ffffffffffffffffffffffffffffffffffffffff167f8be0079c531659141344cd1fd0a4f28419497f9722a3daafe3b4186f6b6457e060405160405180910390a35050565b5f73ffffffffffffffffffffffffffffffffffffffff168473ffffffffffffffffffffffffffffffffffffffff1603610a6f575f6040517fe602df05000000000000000000000000000000000000000000000000000000008152600401610a6691906110a4565b60405180910390fd5b5f73ffffffffffffffffffffffffffffffffffffffff168373ffffffffffffffffffffffffffffffffffffffff1603610adf575f6040517f94280d62000000000000000000000000000000000000000000000000000000008152600401610ad691906110a4565b60405180910390fd5b8160015f8673ffffffffffffffffffffffffffffffffffffffff1673ffffffffffffffffffffffffffffffffffffffff1681526020019081526020015f205f8573ffffffffffffffffffffffffffffffffffffffff1673ffffffffffffffffffffffffffffffffffffffff1681526020019081526020015f20819055508015610bc8578273ffffffffffffffffffffffffffffffffffffffff168473ffffffffffffffffffffffffffffffffffffffff167f8c5be1e5ebec7d5bd14f71427d1e84f3dd0314c0f7b2291e5b200ac8c7c3b92584604051610bbf9190610fa2565b60405180910390a35b50505050565b5f73ffffffffffffffffffffffffffffffffffffffff168373ffffffffffffffffffffffffffffffffffffffff1603610c1e578060025f828254610c1291906111ba565b92505081905550610cec565b5f805f8573ffffffffffffffffffffffffffffffffffffffff1673ffffffffffffffffffffffffffffffffffffffff1681526020019081526020015f2054905081811015610ca7578381836040517fe450d38c000000000000000000000000000000000000000000000000000000008152600401610c9e93929190611158565b60405180910390fd5b8181035f808673ffffffffffffffffffffffffffffffffffffffff1673ffffffffffffffffffffffffffffffffffffffff1681526020019081526020015f2081905550505b5f73ffffffffffffffffffffffffffffffffffffffff168273ffffffffffffffffffffffffffffffffffffffff1603610d33578060025f8282540392505081905550610d7d565b805f808473ffffffffffffffffffffffffffffffffffffffff1673ffffffffffffffffffffffffffffffffffffffff1681526020019081526020015f205f82825401925050819055505b8173ffffffffffffffffffffffffffffffffffffffff168373ffffffffffffffffffffffffffffffffffffffff167fddf252ad1be2c89b69c2b068fc378daa952ba7f163c4a11628f55a4df523b3ef83604051610dda9190610fa2565b60405180910390a3505050565b5f81519050919050565b5f82825260208201905092915050565b5f5b83811015610e1e578082015181840152602081019050610e03565b5f8484015250505050565b5f601f19601f8301169050919050565b5f610e4382610de7565b610e4d8185610df1565b9350610e5d818560208601610e01565b610e6681610e29565b840191505092915050565b5f6020820190508181035f830152610e898184610e39565b905092915050565b5f80fd5b5f73ffffffffffffffffffffffffffffffffffffffff82169050919050565b5f610ebe82610e95565b9050919050565b610ece81610eb4565b8114610ed8575f80fd5b50565b5f81359050610ee981610ec5565b92915050565b5f819050919050565b610f0181610eef565b8114610f0b575f80fd5b50565b5f81359050610f1c81610ef8565b92915050565b5f8060408385031215610f3857610f37610e91565b5b5f610f4585828601610edb565b9250506020610f5685828601610f0e565b9150509250929050565b5f8115159050919050565b610f7481610f60565b82525050565b5f602082019050610f8d5f830184610f6b565b92915050565b610f9c81610eef565b82525050565b5f602082019050610fb55f830184610f93565b92915050565b5f805f60608486031215610fd257610fd1610e91565b5b5f610fdf86828701610edb565b9350506020610ff086828701610edb565b925050604061100186828701610f0e565b9150509250925092565b5f60ff82169050919050565b6110208161100b565b82525050565b5f6020820190506110395f830184611017565b92915050565b5f6020828403121561105457611053610e91565b5b5f61106184828501610f0e565b91505092915050565b5f6020828403121561107f5761107e610e91565b5b5f61108c84828501610edb565b91505092915050565b61109e81610eb4565b82525050565b5f6020820190506110b75f830184611095565b92915050565b5f80604083850312156110d3576110d2610e91565b5b5f6110e085828601610edb565b92505060206110f185828601610edb565b9150509250929050565b7f4e487b71000000000000000000000000000000000000000000000000000000005f52602260045260245ffd5b5f600282049050600182168061113f57607f821691505b602082108103611152576111516110fb565b5b50919050565b5f60608201905061116b5f830186611095565b6111786020830185610f93565b6111856040830184610f93565b949350505050565b7f4e487b71000000000000000000000000000000000000000000000000000000005f52601160045260245ffd5b5f6111c482610eef565b91506111cf83610eef565b92508282019050808211156111e7576111e661118d565b5b9291505056fea264697066735822122023cb0383046e4d1c818a7b079d46f6357ecbe2c04b50a738ff878b4a408c74ca64736f6c63430008150033",
  "immutableReferences": {},
  "source": "// SPDX-License-Identifier: MIT\npragma solidity ^0.8.0;\n\nimport \"@openzeppelin/contracts/access/Ownable.sol\";\nimport \"./EduPoints.sol\";\n\ncontract Ecosystem is Ownable {\n    EduPoints public epToken;\n\n    struct User {\n        string username;\n        bool isRegistered;\n        address walletId;\n        uint256 epBalance;\n    }\n\n    struct Transaction {\n        address _to;\n        address _from;\n        uint256 _cost; \n    }\n\n\n    mapping(address => User) public users;\n    mapping(uint256 => Transaction) public transactions;\n    uint256 public transactionCounter;\n\n    event UserRegistered(address indexed walletId, string username);\n    event EPTransferred(address indexed from, address indexed to, uint256 amount);\n\n\n    constructor(uint256 initialSupply) Ownable(msg.sender) {\n        epToken = new EduPoints(initialSupply);\n        transactionCounter = 0;\n    }\n\n    function registerUser(string memory _username,  address _walletId) external {\n        require(!users[_walletId].isRegistered, \"User is already registered\");\n        require(bytes(_username).length > 0, \"Username cannot be empty\");\n        require(_walletId != address(0), \"Invalid wallet address\");\n\n        users[_walletId] = User({\n            username: _username,\n            isRegistered: true,\n            walletId: msg.sender,\n            epBalance: 0\n        });\n\n        emit UserRegistered(msg.sender, _username);\n    }\n\n    function transferEP(address _from, address _to, uint256 _cost) external {\n        require(users[_from].isRegistered, \"Sender is not registered\");\n        require(users[_to].isRegistered, \"Receiver is not registered\");\n        require(users[_from].epBalance >= _cost, \"Insufficient EP balance\");\n        require(_from != _to, \"Cannot transfer to self\");\n\n        bool success = epToken.transferFrom(_from, _to, _cost);\n        require(success, \"Transfer failed\");\n        // Deduct EP from sender\n        users[_from].epBalance -= _cost;\n\n        // Add EP to receiver\n        users[_to].epBalance += _cost;\n\n        // Create and store the transaction\n        Transaction memory newTransaction = Transaction({\n            _to: _to,\n            _from: _from,\n            _cost: _cost\n        });\n        transactions[transactionCounter++] = newTransaction;\n\n        // Emit an event for the transaction\n        emit EPTransferred(_from, _to, _cost);\n    }\n}",
  "sourcePath": "/Users/aliasgar/Desktop/Ali Asgar/Projects/divhacks-2024/blockchain/contracts/Ecosystem.sol",
  "compiler": {
    "name": "solc",
    "version": "0.8.21+commit.d9974bed.Emscripten.clang"
  },
  "schemaVersion": "3.4.16",
  "updatedAt": "2024-10-06T06:42:58.371Z",
  "networkType": "ethereum",
  "devdoc": {
    "errors": {
      "OwnableInvalidOwner(address)": [
        {
          "details": "The owner is not a valid owner account. (eg. `address(0)`)"
        }
      ],
      "OwnableUnauthorizedAccount(address)": [
        {
          "details": "The caller account is not authorized to perform an operation."
        }
      ]
    },
    "kind": "dev",
    "methods": {
      "owner()": {
        "details": "Returns the address of the current owner."
      },
      "renounceOwnership()": {
        "details": "Leaves the contract without owner. It will not be possible to call `onlyOwner` functions. Can only be called by the current owner. NOTE: Renouncing ownership will leave the contract without an owner, thereby disabling any functionality that is only available to the owner."
      },
      "transferOwnership(address)": {
        "details": "Transfers ownership of the contract to a new account (`newOwner`). Can only be called by the current owner."
      }
    },
    "version": 1
  },
  "userdoc": {
    "kind": "user",
    "methods": {},
    "version": 1
  }
}